:020000040000FA
:100000000A128A11E82F00308A000408840A820745
:1000100000343234303432343334003449344E34E2
:1000200047345234453453344534203443344F3408
:100030004E3454345234413453344534D134413441
:1000400020343A343334003443346C3461347634FD
:100050006534203449346E3463346F34723472340E
:100060006534633474346134003443346C34613443
:1000700076346534203443346F34723472346534EA
:08008000633474346134003470
:100A280001300A128A11C4250A128A110830F4000A
:100A3800C930F300F30B1E2DF40B1E2D232D0800D7
:100A48003134323433344134343435343634423446
:100A580037343834393443342A3430342334443442
:100A6800F030FF007F08831603138605F030FF007F
:100A78007F088604811301309500831603178901C6
:100A880008007E088A007F0882000A128A1145251C
:100A98000A128A118000840A04087D0603190034AA
:100AA800FF0A0319FE0A492DF3006A2D7308840012
:100AB8000A128A1103200A128A110A128A11FA25C7
:100AC8000A128A110130FF007F08F30773088400B7
:100AD8000A128A1103200A128A11003A031D752D81
:100AE800762D5A2D0800F6000230760203187D2D67
:100AF8007E2D892D74080F398038F70077080A127F
:100B08008A11C4250A128A11932D74080F39C03826
:100B1800F70077080A128A11C4250A128A11750883
:100B28000A128A1158250A128A110800831603131B
:100B380088012730F400F530F300F30BA12DF40BF6
:100B4800A12D02300A128A11C4250A128A112830EE
:100B58000A128A11C4250A128A1101300A128A114E
:100B6800C4250A128A110C300A128A11C4250A12E5
:100B78008A1106300A128A11C4250A128A1108003D
:100B8800F200F0307205F0008312031308080F39E1
:100B9800700488000810881400008312031388105A
:100BA8000330F1009730F000F00BD82DF10BD82D61
:100BB800DD2D7208F00004300310F00DFF3E031D18
:100BC800E02D8312031308080F3970048800881475
:100BD80000008312031388100830F100C930F000B8
:100BE800F00BF42DF10BF42DF92D0800F200F03084
:100BF8007205F0008312031308080F397004880087
:100C08000814881400008312031388100330F100BD
:100C18009730F000F00B0E2EF10B0E2E132E7208EB
:100C2800F00004300310F00DFF3E031D162E831252
:100C3800031308080F397004880088140000831211
:100C4800031388100830F100C930F000F00B2A2E89
:100C5800F10B2A2E2F2E0800F500652E750884004A
:100C6800831300080319392E3A2E4A2E700884007F
:100C78000A128A1103200A128A11F30075088400E7
:100C8800000873060319492E4A2E5D2E7008840049
:100C98000A128A1103200A128A11F30075088400C7
:100CA8000008F40073087402F000F101031CF1035A
:100CB800752E0130FF007F08F5070130FF007F081F
:100CC800F0070130F1020030031CF203F202710A4E
:100CD800031D722E720A031D722E732E322EF0011E
:100CE800F10108007130831603138F000A128A116C
:100CF8009A250A128A110A128A1134250A128A11AF
:100D0800F4010630F50000300A128A1177250A121C
:100D18008A11C0300A128A11C4250A128A110A12CD
:100D28008A1107270A128A11FB007B0803199D2ED6
:100D38009E2EAE2E7B080A128A11FA250A128A11F3
:100D48007C08433E84007B08831380000130FF0049
:100D58007F08FC070230FA000430F900BA30F800C6
:100D6800F80BB42EF90BB42EFA0BB42E0000053094
:100D78007C02031CC02EC12E932E0130F0000430DB
:100D8800F1000030F20043300A128A1130260A12AC
:100D98008A1170087104031DD22ED32EE22E0A1276
:100DA8008A1114250A128A11F4012D30F500003039
:100DB8000A128A1177250A128A11F02E0A128A114C
:100DC80014250A128A11F4011C30F50000300A12A9
:100DD8008A1177250A128A111530FA004B30F9006A
:100DE800BE30F800F80BF62EF90BF62EFA0BF62E9D
:100DF80000000A128A1114250A128A11FC01842E95
:100E08000A128A110028203084003330F0000408C8
:100E1800F1001030F2007008840083130008F3001A
:100E2800F00A7108840073088000F10AF20B0F2F92
:100E380083120313B001B101B20183120313310805
:100E48003204031D282F292F4E2FFE3086004230F2
:100E5800F000F00B2D2F0000332F2008B000831274
:100E68000313061E382F392F312F3C2F2108B000CD
:100E7800861E3F2F402F3A2F432F2208B000061F0F
:100E8800462F472F412F4A2F2308B000861F4D2F8A
:100E98004E2F482F31033204031D532F542F792F1F
:100EA800FD3086004230F000F00B582F00005E2F16
:100EB8002408B00083120313061E632F642F5C2FCF
:100EC800672F2508B000861E6A2F6B2F652F6E2F9F
:100ED8002608B000061F712F722F6C2F752F270858
:100EE800B000861F782F792F732F02303106320415
:100EF800031D7F2F802FA52FFB3086004230F00086
:100F0800F00B842F00008A2F2808B00083120313E7
:100F1800061E8F2F902F882F932F2908B000861E2A
:100F2800962F972F912F9A2F2A08B000061F9D2FD2
:100F38009E2F982FA12F2B08B000861FA42FA52F16
:100F48009F2F033031063204031DAB2FAC2FD12F56
:100F5800F73086004230F000F00BB02F0000B62FBB
:100F68002C08B00083120313061EBB2FBC2FB42F0E
:100F7800BF2F2D08B000861EC22FC32FBD2FC62F2E
:100F88002E08B000061FC92FCA2FC42FCD2F2F0837
:100F9800B000861FD02FD12FCB2F0130B1070318F7
:100FA800B20A0030B2073208803AFF0080307F0270
:100FB800031DE02F04303102031CE32FE42F212FFF
:100FC800831203133008080083134330FD000530F3
:100FD800FE002430FF00333084000A128A114925AC
:100FE8000A128A11C301C401C501C601C701FC0167
:080FF80083010A128A11762E12
:04400E00D520FF3F7B
:00000001FF
